{
  "contractName": "vote",
  "abi": [
    {
      "constant": true,
      "inputs": [],
      "name": "candidatB",
      "outputs": [
        {
          "name": "",
          "type": "address"
        }
      ],
      "payable": false,
      "stateMutability": "view",
      "type": "function"
    },
    {
      "constant": true,
      "inputs": [
        {
          "name": "",
          "type": "address"
        }
      ],
      "name": "voteOptions",
      "outputs": [
        {
          "name": "",
          "type": "uint256"
        }
      ],
      "payable": false,
      "stateMutability": "view",
      "type": "function"
    },
    {
      "constant": true,
      "inputs": [],
      "name": "owner",
      "outputs": [
        {
          "name": "",
          "type": "address"
        }
      ],
      "payable": false,
      "stateMutability": "view",
      "type": "function"
    },
    {
      "constant": true,
      "inputs": [
        {
          "name": "",
          "type": "address"
        }
      ],
      "name": "votes",
      "outputs": [
        {
          "name": "",
          "type": "uint256"
        }
      ],
      "payable": false,
      "stateMutability": "view",
      "type": "function"
    },
    {
      "constant": true,
      "inputs": [],
      "name": "needAnotherVote",
      "outputs": [
        {
          "name": "",
          "type": "bool"
        }
      ],
      "payable": false,
      "stateMutability": "view",
      "type": "function"
    },
    {
      "constant": true,
      "inputs": [],
      "name": "endVoteDate",
      "outputs": [
        {
          "name": "",
          "type": "uint256"
        }
      ],
      "payable": false,
      "stateMutability": "view",
      "type": "function"
    },
    {
      "constant": true,
      "inputs": [],
      "name": "candidatA",
      "outputs": [
        {
          "name": "",
          "type": "address"
        }
      ],
      "payable": false,
      "stateMutability": "view",
      "type": "function"
    },
    {
      "inputs": [
        {
          "name": "_candidatA",
          "type": "address"
        },
        {
          "name": "_candidatB",
          "type": "address"
        },
        {
          "name": "_endVoteDate",
          "type": "uint256"
        }
      ],
      "payable": false,
      "stateMutability": "nonpayable",
      "type": "constructor"
    },
    {
      "constant": false,
      "inputs": [
        {
          "name": "_vote",
          "type": "uint256"
        }
      ],
      "name": "makeVote",
      "outputs": [],
      "payable": false,
      "stateMutability": "nonpayable",
      "type": "function"
    },
    {
      "constant": false,
      "inputs": [],
      "name": "finishVote",
      "outputs": [],
      "payable": false,
      "stateMutability": "nonpayable",
      "type": "function"
    }
  ],
  "bytecode": "0x6060604052341561000f57600080fd5b604051606080610a2883398101604052808051906020019091908051906020019091908051906020019091905050826000806101000a81548173ffffffffffffffffffffffffffffffffffffffff021916908373ffffffffffffffffffffffffffffffffffffffff16021790555081600160006101000a81548173ffffffffffffffffffffffffffffffffffffffff021916908373ffffffffffffffffffffffffffffffffffffffff16021790555042811115156100cc57600080fd5b8060038190555033600460016101000a81548173ffffffffffffffffffffffffffffffffffffffff021916908373ffffffffffffffffffffffffffffffffffffffff160217905550505050610902806101266000396000f300606060405260043610610099576000357c0100000000000000000000000000000000000000000000000000000000900463ffffffff168063164010271461009e5780632aebcbb6146100f357806337d67e3b146101085780633eaf7591146101555780638da5cb5b14610178578063d8bff5a5146101cd578063d9a1e9d51461021a578063de599c1e14610247578063df9db9ae14610270575b600080fd5b34156100a957600080fd5b6100b16102c5565b604051808273ffffffffffffffffffffffffffffffffffffffff1673ffffffffffffffffffffffffffffffffffffffff16815260200191505060405180910390f35b34156100fe57600080fd5b6101066102eb565b005b341561011357600080fd5b61013f600480803573ffffffffffffffffffffffffffffffffffffffff169060200190919050506105d7565b6040518082815260200191505060405180910390f35b341561016057600080fd5b61017660048080359060200190919050506105ef565b005b341561018357600080fd5b61018b61085a565b604051808273ffffffffffffffffffffffffffffffffffffffff1673ffffffffffffffffffffffffffffffffffffffff16815260200191505060405180910390f35b34156101d857600080fd5b610204600480803573ffffffffffffffffffffffffffffffffffffffff16906020019091905050610880565b6040518082815260200191505060405180910390f35b341561022557600080fd5b61022d610898565b604051808215151515815260200191505060405180910390f35b341561025257600080fd5b61025a6108ab565b6040518082815260200191505060405180910390f35b341561027b57600080fd5b6102836108b1565b604051808273ffffffffffffffffffffffffffffffffffffffff1673ffffffffffffffffffffffffffffffffffffffff16815260200191505060405180910390f35b600160009054906101000a900473ffffffffffffffffffffffffffffffffffffffff1681565b600460019054906101000a900473ffffffffffffffffffffffffffffffffffffffff1673ffffffffffffffffffffffffffffffffffffffff163373ffffffffffffffffffffffffffffffffffffffff1614151561034757600080fd5b6003544211151561035757600080fd5b60056000600160009054906101000a900473ffffffffffffffffffffffffffffffffffffffff1673ffffffffffffffffffffffffffffffffffffffff1673ffffffffffffffffffffffffffffffffffffffff16815260200190815260200160002054600560008060009054906101000a900473ffffffffffffffffffffffffffffffffffffffff1673ffffffffffffffffffffffffffffffffffffffff1673ffffffffffffffffffffffffffffffffffffffff168152602001908152602001600020541115610487576000809054906101000a900473ffffffffffffffffffffffffffffffffffffffff16600260006101000a81548173ffffffffffffffffffffffffffffffffffffffff021916908373ffffffffffffffffffffffffffffffffffffffff1602179055506105d5565b60056000600160009054906101000a900473ffffffffffffffffffffffffffffffffffffffff1673ffffffffffffffffffffffffffffffffffffffff1673ffffffffffffffffffffffffffffffffffffffff16815260200190815260200160002054600560008060009054906101000a900473ffffffffffffffffffffffffffffffffffffffff1673ffffffffffffffffffffffffffffffffffffffff1673ffffffffffffffffffffffffffffffffffffffff1681526020019081526020016000205410156105b857600160009054906101000a900473ffffffffffffffffffffffffffffffffffffffff16600260006101000a81548173ffffffffffffffffffffffffffffffffffffffff021916908373ffffffffffffffffffffffffffffffffffffffff1602179055506105d4565b6001600460006101000a81548160ff0219169083151502179055505b5b565b60066020528060005260406000206000915090505481565b600354421015156105ff57600080fd5b6000600660003373ffffffffffffffffffffffffffffffffffffffff1673ffffffffffffffffffffffffffffffffffffffff1681526020019081526020016000205414151561064d57600080fd5b6000809054906101000a900473ffffffffffffffffffffffffffffffffffffffff1673ffffffffffffffffffffffffffffffffffffffff163373ffffffffffffffffffffffffffffffffffffffff16141580156106f85750600160009054906101000a900473ffffffffffffffffffffffffffffffffffffffff1673ffffffffffffffffffffffffffffffffffffffff163373ffffffffffffffffffffffffffffffffffffffff1614155b151561070357600080fd5b6001811415610780576001600560008060009054906101000a900473ffffffffffffffffffffffffffffffffffffffff1673ffffffffffffffffffffffffffffffffffffffff1673ffffffffffffffffffffffffffffffffffffffff16815260200190815260200160002060008282540192505081905550610813565b60028114156107fe57600160056000600160009054906101000a900473ffffffffffffffffffffffffffffffffffffffff1673ffffffffffffffffffffffffffffffffffffffff1673ffffffffffffffffffffffffffffffffffffffff16815260200190815260200160002060008282540192505081905550610812565b600381141561080c57610811565b600080fd5b5b5b80600660003373ffffffffffffffffffffffffffffffffffffffff1673ffffffffffffffffffffffffffffffffffffffff1681526020019081526020016000208190555050565b600460019054906101000a900473ffffffffffffffffffffffffffffffffffffffff1681565b60056020528060005260406000206000915090505481565b600460009054906101000a900460ff1681565b60035481565b6000809054906101000a900473ffffffffffffffffffffffffffffffffffffffff16815600a165627a7a7230582005364cb54a4b1f695507f50fc7bc3f03a38475263df3ca3f8fa91806643d10bb0029",
  "source": "pragma solidity ^0.4.19;\n\n//\n// @author Dmitriev Vyacheslav\n//\ncontract vote {\n\n    // Candidates\n    address public candidatA;\n    address public candidatB;\n    address whoWin;\n\n    uint public endVoteDate;\n    bool public needAnotherVote;\n    address public owner;\n\n    modifier onlyOwner() {\n        require(msg.sender == owner);\n        _;\n    }\n\n    // Candidat's address => amount of votes\n    mapping (address => uint) public votes;\n\n    // Vote options\n    // 0 - Address hasn't voted yet\n    // 1 - Vote for candidat A\n    // 2 - Vote for candidat B\n    // 3 - against all\n    mapping(address => uint) public voteOptions;\n\n    function vote(address _candidatA, address _candidatB, uint _endVoteDate) public {\n        candidatA = _candidatA;\n        candidatB = _candidatB;\n        require(_endVoteDate > now);\n        endVoteDate = _endVoteDate;\n        owner = msg.sender;\n   }\n\n    function makeVote(uint _vote) public {\n        require(now < endVoteDate);\n        require(voteOptions[msg.sender] == 0); // Msg sender hasn't voted yet\n        require(msg.sender != candidatA && msg.sender != candidatB);\n        if(_vote == 1) {\n            votes[candidatA] += 1;\n        }\n        else if(_vote == 2) {\n            votes[candidatB] += 1;\n        }\n        else if(_vote == 3) {\n            //  do nothing\n        }\n        else {\n            revert();\n        }\n        voteOptions[msg.sender] = _vote;\n    }\n\n    function finishVote() public onlyOwner() {\n        require(now > endVoteDate);\n        if(votes[candidatA] > votes[candidatB]) {\n            whoWin = candidatA;\n        }\n        else if(votes[candidatA] < votes[candidatB]) {\n            whoWin = candidatB;\n        }\n        else {\n            needAnotherVote = true;\n        }\n    }\n}\n",
  "sourcePath": "/Users/vyacheslav/projects/gol/testdapp/contracts/vote.sol",
  "compiler": {
    "name": "solc",
    "version": "0.4.19+commit.c4cbbb05.Emscripten.clang"
  },
  "schemaVersion": "2.0.0",
  "updatedAt": "2018-06-25T08:06:41.744Z"
}