{
  "contractName": "FE",
  "abi": [
    {
      "constant": true,
      "inputs": [],
      "name": "aa",
      "outputs": [
        {
          "name": "",
          "type": "uint256"
        }
      ],
      "payable": false,
      "stateMutability": "view",
      "type": "function"
    }
  ],
  "bytecode": "0x606060405260376000553415601357600080fd5b609c806100216000396000f300606060405260043610603f576000357c0100000000000000000000000000000000000000000000000000000000900463ffffffff1680638466c3e6146044575b600080fd5b3415604e57600080fd5b6054606a565b6040518082815260200191505060405180910390f35b600054815600a165627a7a72305820fae2d3c57e78e10ac12dbe61a5a8f5429b4a2452aa0e32ba7de08f7c8d01e6920029",
  "source": "pragma solidity ^0.4.17;\n\n\ncontract FE {\n    uint public aa=55;\n\n\n}\n\n\ncontract main {\n    uint private num = 777;\n    string public name;\n    uint public number;\n    address public owner;\n    uint public superNumber;\n    uint[] public ages;\n    bytes32 public stroka;\n    string public ns;\n    address public newContract;\n    uint public neoTime;\n\n    struct User {\n        string login;\n        string password;\n    }\n\n    User[] public peoples;\n\n    function main(uint _superNumber) public {\n        owner = msg.sender;\n        superNumber = _superNumber;\n    }\n\n    function updateNumber(uint _number) public {\n        superNumber = _number;\n    }\n\n    function updateName(string _name) public {\n        //require(msg.sender == owner);\n        name = _name;\n    }\n\n    function setAges(uint[] _ages) public {\n        for (uint i=0; i < _ages.length; i++) {\n            ages.push(_ages[i]);\n        }\n    }\n\n    function setBytes(bytes32 _str) public {\n        stroka = _str;\n    }\n\n    function setS(string _s) public {\n        ns = _s;\n    }\n\n    function setNewOwner(address _owner) public {\n        owner = _owner;\n    }\n\n    function setStruct() public {\n        peoples.push(User(\"ivan\", \"ivanov\"));\n    }\n\n    function ls() public constant returns(uint) {\n        return peoples.length;\n    }\n\n    function rb() public constant returns(bool) {\n        return true;\n    }\n\n    function tr() public constant returns(bool) {\n        require(msg.sender == owner);\n        return true;\n    }\n\n    function deployAnotherContract() public returns(address) {\n        newContract = new FE();\n        return newContract;\n    }\n\n    function funTime() public {\n        neoTime = now;\n    }\n\n     //\n     //\n     //\n     //\n     //\n     // offline sign\n\n}\n",
  "sourcePath": "/Users/vyacheslav/projects/home/contracts/main.sol",
  "compiler": {
    "name": "solc",
    "version": "0.4.19+commit.c4cbbb05.Emscripten.clang"
  },
  "schemaVersion": "2.0.0",
  "updatedAt": "2018-03-06T17:40:54.003Z"
}