{
  "contractName": "main",
  "abi": [
    {
      "constant": true,
      "inputs": [],
      "name": "name",
      "outputs": [
        {
          "name": "",
          "type": "string"
        }
      ],
      "payable": false,
      "stateMutability": "view",
      "type": "function"
    },
    {
      "constant": false,
      "inputs": [
        {
          "name": "_number",
          "type": "uint256"
        }
      ],
      "name": "updateNumber",
      "outputs": [],
      "payable": false,
      "stateMutability": "nonpayable",
      "type": "function"
    },
    {
      "constant": true,
      "inputs": [
        {
          "name": "",
          "type": "uint256"
        }
      ],
      "name": "peoples",
      "outputs": [
        {
          "name": "login",
          "type": "string"
        },
        {
          "name": "password",
          "type": "string"
        }
      ],
      "payable": false,
      "stateMutability": "view",
      "type": "function"
    },
    {
      "constant": true,
      "inputs": [],
      "name": "stroka",
      "outputs": [
        {
          "name": "",
          "type": "bytes32"
        }
      ],
      "payable": false,
      "stateMutability": "view",
      "type": "function"
    },
    {
      "constant": true,
      "inputs": [],
      "name": "newContract",
      "outputs": [
        {
          "name": "",
          "type": "address"
        }
      ],
      "payable": false,
      "stateMutability": "view",
      "type": "function"
    },
    {
      "constant": true,
      "inputs": [],
      "name": "ns",
      "outputs": [
        {
          "name": "",
          "type": "string"
        }
      ],
      "payable": false,
      "stateMutability": "view",
      "type": "function"
    },
    {
      "constant": false,
      "inputs": [
        {
          "name": "_s",
          "type": "string"
        }
      ],
      "name": "setS",
      "outputs": [],
      "payable": false,
      "stateMutability": "nonpayable",
      "type": "function"
    },
    {
      "constant": false,
      "inputs": [
        {
          "name": "_ages",
          "type": "uint256[]"
        }
      ],
      "name": "setAges",
      "outputs": [],
      "payable": false,
      "stateMutability": "nonpayable",
      "type": "function"
    },
    {
      "constant": true,
      "inputs": [],
      "name": "number",
      "outputs": [
        {
          "name": "",
          "type": "uint256"
        }
      ],
      "payable": false,
      "stateMutability": "view",
      "type": "function"
    },
    {
      "constant": false,
      "inputs": [
        {
          "name": "_name",
          "type": "string"
        }
      ],
      "name": "updateName",
      "outputs": [],
      "payable": false,
      "stateMutability": "nonpayable",
      "type": "function"
    },
    {
      "constant": true,
      "inputs": [],
      "name": "owner",
      "outputs": [
        {
          "name": "",
          "type": "address"
        }
      ],
      "payable": false,
      "stateMutability": "view",
      "type": "function"
    },
    {
      "constant": true,
      "inputs": [],
      "name": "ls",
      "outputs": [
        {
          "name": "",
          "type": "uint256"
        }
      ],
      "payable": false,
      "stateMutability": "view",
      "type": "function"
    },
    {
      "constant": false,
      "inputs": [],
      "name": "setStruct",
      "outputs": [],
      "payable": false,
      "stateMutability": "nonpayable",
      "type": "function"
    },
    {
      "constant": true,
      "inputs": [],
      "name": "rb",
      "outputs": [
        {
          "name": "",
          "type": "bool"
        }
      ],
      "payable": false,
      "stateMutability": "view",
      "type": "function"
    },
    {
      "constant": false,
      "inputs": [],
      "name": "deployAnotherContract",
      "outputs": [
        {
          "name": "",
          "type": "address"
        }
      ],
      "payable": false,
      "stateMutability": "nonpayable",
      "type": "function"
    },
    {
      "constant": true,
      "inputs": [
        {
          "name": "",
          "type": "uint256"
        }
      ],
      "name": "ages",
      "outputs": [
        {
          "name": "",
          "type": "uint256"
        }
      ],
      "payable": false,
      "stateMutability": "view",
      "type": "function"
    },
    {
      "constant": true,
      "inputs": [],
      "name": "tr",
      "outputs": [
        {
          "name": "",
          "type": "bool"
        }
      ],
      "payable": false,
      "stateMutability": "view",
      "type": "function"
    },
    {
      "constant": false,
      "inputs": [
        {
          "name": "_str",
          "type": "bytes32"
        }
      ],
      "name": "setBytes",
      "outputs": [],
      "payable": false,
      "stateMutability": "nonpayable",
      "type": "function"
    },
    {
      "constant": true,
      "inputs": [],
      "name": "neoTime",
      "outputs": [
        {
          "name": "",
          "type": "uint256"
        }
      ],
      "payable": false,
      "stateMutability": "view",
      "type": "function"
    },
    {
      "constant": true,
      "inputs": [],
      "name": "superNumber",
      "outputs": [
        {
          "name": "",
          "type": "uint256"
        }
      ],
      "payable": false,
      "stateMutability": "view",
      "type": "function"
    },
    {
      "constant": false,
      "inputs": [],
      "name": "funTime",
      "outputs": [],
      "payable": false,
      "stateMutability": "nonpayable",
      "type": "function"
    },
    {
      "constant": false,
      "inputs": [
        {
          "name": "_owner",
          "type": "address"
        }
      ],
      "name": "setNewOwner",
      "outputs": [],
      "payable": false,
      "stateMutability": "nonpayable",
      "type": "function"
    },
    {
      "inputs": [
        {
          "name": "_superNumber",
          "type": "uint256"
        }
      ],
      "payable": false,
      "stateMutability": "nonpayable",
      "type": "constructor"
    }
  ],
  "bytecode": "0x6060604052610309600055341561001557600080fd5b6040516020806110148339810160405280805190602001909190505033600360006101000a81548173ffffffffffffffffffffffffffffffffffffffff021916908373ffffffffffffffffffffffffffffffffffffffff1602179055508060048190555050610f8b806100896000396000f300606060405260043610610128576000357c0100000000000000000000000000000000000000000000000000000000900463ffffffff16806306fdde031461012d5780631db05a88146101bb5780631f1094e7146101de5780632672a997146103205780634313b53114610351578063618dcd05146103a657806371702076146104345780637797f909146104915780638381f58a146104eb57806384da92a7146105145780638da5cb5b14610571578063a2ecbc35146105c6578063b360c35f146105ef578063b6ae33d814610604578063b71b449014610631578063c4a1a8db14610686578063c5917cbd146106bd578063e6748da9146106ea578063f1d0dd4014610711578063f27aeb5c1461073a578063f33871c114610763578063f5a1f5b414610778575b600080fd5b341561013857600080fd5b6101406107b1565b6040518080602001828103825283818151815260200191508051906020019080838360005b83811015610180578082015181840152602081019050610165565b50505050905090810190601f1680156101ad5780820380516001836020036101000a031916815260200191505b509250505060405180910390f35b34156101c657600080fd5b6101dc600480803590602001909190505061084f565b005b34156101e957600080fd5b6101ff6004808035906020019091905050610859565b60405180806020018060200183810383528581815460018160011615610100020316600290048152602001915080546001816001161561010002031660029004801561028c5780601f106102615761010080835404028352916020019161028c565b820191906000526020600020905b81548152906001019060200180831161026f57829003601f168201915b505083810382528481815460018160011615610100020316600290048152602001915080546001816001161561010002031660029004801561030f5780601f106102e45761010080835404028352916020019161030f565b820191906000526020600020905b8154815290600101906020018083116102f257829003601f168201915b505094505050505060405180910390f35b341561032b57600080fd5b61033361088a565b60405180826000191660001916815260200191505060405180910390f35b341561035c57600080fd5b610364610890565b604051808273ffffffffffffffffffffffffffffffffffffffff1673ffffffffffffffffffffffffffffffffffffffff16815260200191505060405180910390f35b34156103b157600080fd5b6103b96108b6565b6040518080602001828103825283818151815260200191508051906020019080838360005b838110156103f95780820151818401526020810190506103de565b50505050905090810190601f1680156104265780820380516001836020036101000a031916815260200191505b509250505060405180910390f35b341561043f57600080fd5b61048f600480803590602001908201803590602001908080601f01602080910402602001604051908101604052809392919081815260200183838082843782019150505050505091905050610954565b005b341561049c57600080fd5b6104e960048080359060200190820180359060200190808060200260200160405190810160405280939291908181526020018383602002808284378201915050505050509190505061096e565b005b34156104f657600080fd5b6104fe6109ce565b6040518082815260200191505060405180910390f35b341561051f57600080fd5b61056f600480803590602001908201803590602001908080601f016020809104026020016040519081016040528093929190818152602001838380828437820191505050505050919050506109d4565b005b341561057c57600080fd5b6105846109ee565b604051808273ffffffffffffffffffffffffffffffffffffffff1673ffffffffffffffffffffffffffffffffffffffff16815260200191505060405180910390f35b34156105d157600080fd5b6105d9610a14565b6040518082815260200191505060405180910390f35b34156105fa57600080fd5b610602610a21565b005b341561060f57600080fd5b610617610b08565b604051808215151515815260200191505060405180910390f35b341561063c57600080fd5b610644610b11565b604051808273ffffffffffffffffffffffffffffffffffffffff1673ffffffffffffffffffffffffffffffffffffffff16815260200191505060405180910390f35b341561069157600080fd5b6106a76004808035906020019091905050610b99565b6040518082815260200191505060405180910390f35b34156106c857600080fd5b6106d0610bbd565b604051808215151515815260200191505060405180910390f35b34156106f557600080fd5b61070f600480803560001916906020019091905050610c22565b005b341561071c57600080fd5b610724610c30565b6040518082815260200191505060405180910390f35b341561074557600080fd5b61074d610c36565b6040518082815260200191505060405180910390f35b341561076e57600080fd5b610776610c3c565b005b341561078357600080fd5b6107af600480803573ffffffffffffffffffffffffffffffffffffffff16906020019091905050610c45565b005b60018054600181600116156101000203166002900480601f0160208091040260200160405190810160405280929190818152602001828054600181600116156101000203166002900480156108475780601f1061081c57610100808354040283529160200191610847565b820191906000526020600020905b81548152906001019060200180831161082a57829003601f168201915b505050505081565b8060048190555050565b600a8181548110151561086857fe5b9060005260206000209060020201600091509050806000019080600101905082565b60065481565b600860009054906101000a900473ffffffffffffffffffffffffffffffffffffffff1681565b60078054600181600116156101000203166002900480601f01602080910402602001604051908101604052809291908181526020018280546001816001161561010002031660029004801561094c5780601f106109215761010080835404028352916020019161094c565b820191906000526020600020905b81548152906001019060200180831161092f57829003601f168201915b505050505081565b806007908051906020019061096a929190610c89565b5050565b60008090505b81518110156109ca57600580548060010182816109919190610d09565b9160005260206000209001600084848151811015156109ac57fe5b90602001906020020151909190915055508080600101915050610974565b5050565b60025481565b80600190805190602001906109ea929190610c89565b5050565b600360009054906101000a900473ffffffffffffffffffffffffffffffffffffffff1681565b6000600a80549050905090565b600a8054806001018281610a359190610d35565b9160005260206000209060020201600060408051908101604052806040805190810160405280600481526020017f6976616e0000000000000000000000000000000000000000000000000000000081525081526020016040805190810160405280600681526020017f6976616e6f76000000000000000000000000000000000000000000000000000081525081525090919091506000820151816000019080519060200190610ae5929190610d67565b506020820151816001019080519060200190610b02929190610d67565b50505050565b60006001905090565b6000610b1b610de7565b604051809103906000f0801515610b3157600080fd5b600860006101000a81548173ffffffffffffffffffffffffffffffffffffffff021916908373ffffffffffffffffffffffffffffffffffffffff160217905550600860009054906101000a900473ffffffffffffffffffffffffffffffffffffffff16905090565b600581815481101515610ba857fe5b90600052602060002090016000915090505481565b6000600360009054906101000a900473ffffffffffffffffffffffffffffffffffffffff1673ffffffffffffffffffffffffffffffffffffffff163373ffffffffffffffffffffffffffffffffffffffff16141515610c1b57600080fd5b6001905090565b806006816000191690555050565b60095481565b60045481565b42600981905550565b80600360006101000a81548173ffffffffffffffffffffffffffffffffffffffff021916908373ffffffffffffffffffffffffffffffffffffffff16021790555050565b828054600181600116156101000203166002900490600052602060002090601f016020900481019282601f10610cca57805160ff1916838001178555610cf8565b82800160010185558215610cf8579182015b82811115610cf7578251825591602001919060010190610cdc565b5b509050610d059190610df6565b5090565b815481835581811511610d3057818360005260206000209182019101610d2f9190610df6565b5b505050565b815481835581811511610d6257600202816002028360005260206000209182019101610d619190610e1b565b5b505050565b828054600181600116156101000203166002900490600052602060002090601f016020900481019282601f10610da857805160ff1916838001178555610dd6565b82800160010185558215610dd6579182015b82811115610dd5578251825591602001919060010190610dba565b5b509050610de39190610df6565b5090565b60405160bd80610ea383390190565b610e1891905b80821115610e14576000816000905550600101610dfc565b5090565b90565b610e5791905b80821115610e535760008082016000610e3a9190610e5a565b600182016000610e4a9190610e5a565b50600201610e21565b5090565b90565b50805460018160011615610100020316600290046000825580601f10610e805750610e9f565b601f016020900490600052602060002090810190610e9e9190610df6565b5b505600606060405260376000553415601357600080fd5b609c806100216000396000f300606060405260043610603f576000357c0100000000000000000000000000000000000000000000000000000000900463ffffffff1680638466c3e6146044575b600080fd5b3415604e57600080fd5b6054606a565b6040518082815260200191505060405180910390f35b600054815600a165627a7a72305820fae2d3c57e78e10ac12dbe61a5a8f5429b4a2452aa0e32ba7de08f7c8d01e6920029a165627a7a723058201bb23ea648f5944196cd32d0dea83bd4252523d511b8492fee546fb8a61368fb0029",
  "source": "pragma solidity ^0.4.17;\n\n\ncontract FE {\n    uint public aa=55;\n\n\n}\n\n\ncontract main {\n    uint private num = 777;\n    string public name;\n    uint public number;\n    address public owner;\n    uint public superNumber;\n    uint[] public ages;\n    bytes32 public stroka;\n    string public ns;\n    address public newContract;\n    uint public neoTime;\n\n    struct User {\n        string login;\n        string password;\n    }\n\n    User[] public peoples;\n\n    function main(uint _superNumber) public {\n        owner = msg.sender;\n        superNumber = _superNumber;\n    }\n\n    function updateNumber(uint _number) public {\n        superNumber = _number;\n    }\n\n    function updateName(string _name) public {\n        //require(msg.sender == owner);\n        name = _name;\n    }\n\n    function setAges(uint[] _ages) public {\n        for (uint i=0; i < _ages.length; i++) {\n            ages.push(_ages[i]);\n        }\n    }\n\n    function setBytes(bytes32 _str) public {\n        stroka = _str;\n    }\n\n    function setS(string _s) public {\n        ns = _s;\n    }\n\n    function setNewOwner(address _owner) public {\n        owner = _owner;\n    }\n\n    function setStruct() public {\n        peoples.push(User(\"ivan\", \"ivanov\"));\n    }\n\n    function ls() public constant returns(uint) {\n        return peoples.length;\n    }\n\n    function rb() public constant returns(bool) {\n        return true;\n    }\n\n    function tr() public constant returns(bool) {\n        require(msg.sender == owner);\n        return true;\n    }\n\n    function deployAnotherContract() public returns(address) {\n        newContract = new FE();\n        return newContract;\n    }\n\n    function funTime() public {\n        neoTime = now;\n    }\n\n     //\n     //\n     //\n     //\n     //\n     // offline sign\n\n}\n",
  "sourcePath": "/Users/vyacheslav/projects/home/contracts/main.sol",
  "compiler": {
    "name": "solc",
    "version": "0.4.19+commit.c4cbbb05.Emscripten.clang"
  },
  "schemaVersion": "2.0.0",
  "updatedAt": "2018-03-06T17:40:54.010Z"
}